:100000000C942A000C943F000C943F000C943F0089
:100010000C943F000C943F000C943F000C943F0064
:100020000C943F000C943F000C943F000C943F0054
:100030000C943F000C943F000C943F000C943F0044
:100040000C943F000C943F000C943F000C943F0034
:100050000C943F0011241FBECFE5D8E0DEBFCDBF1A
:1000600011E0A0E6B0E0E0E1F6E002C005900D92FC
:10007000AE34B107D9F70E9408020C9406030C9421
:100080000000442319F04130C9F10895813091F006
:1000900028F08230D9F0833029F108952AB381E025
:1000A00090E002C0880F991F6A95E2F7809582233D
:1000B0008ABB089527B381E090E002C0880F991FA2
:1000C0006A95E2F78095822387BB089524B381E087
:1000D00090E002C0880F991F6A95E2F7809582230D
:1000E00084BB089521B381E090E002C0880F991F7E
:1000F0006A95E2F78095822381BB0895813089F06B
:1001000028F08230C9F0833011F108952AB381E0DC
:1001100090E002C0880F991F6A95E2F7822B8ABB94
:10012000089527B381E090E002C0880F991F6A9577
:10013000E2F7822B87BB089524B381E090E002C0F0
:10014000880F991F6A95E2F7822B84BB089521B32B
:1001500081E090E002C0880F991F6A95E2F7822B38
:1001600081BB0895442319F04130C9F108958130CD
:1001700091F028F08230D9F0833029F108952BB323
:1001800081E090E002C0880F991F6A95E2F78095A0
:1001900082238BBB089528B381E090E002C0880FD2
:1001A000991F6A95E2F78095822388BB089525B34D
:1001B00081E090E002C0880F991F6A95E2F7809570
:1001C000822385BB089522B381E090E002C0880FAE
:1001D000991F6A95E2F78095822382BB089581304A
:1001E00089F028F08230C9F0833011F108952BB3E3
:1001F00081E090E002C0880F991F6A95E2F7822B98
:100200008BBB089528B381E090E002C0880F991F4E
:100210006A95E2F7822B88BB089525B381E090E0D0
:1002200002C0880F991F6A95E2F7822B85BB08955B
:1002300022B381E090E002C0880F991F6A95E2F72F
:10024000822B82BB0895CF93C82F40E061E081E00C
:100250000E94B20040E062E081E00E94B20040E013
:1002600063E081E00E94B2008BB39C2F907F8F707F
:10027000892B8BBB41E063E081E00E94B2008FE9F3
:100280009FE00197F1F700C0000040E063E081E0EB
:100290000E94B2002BB330E1C39FC0011124922F02
:1002A0009F70892B8BBB41E063E081E00E94B2002C
:1002B0008FE99FE00197F1F700C0000040E063E0A4
:1002C00081E00E94B2008FE39FE10197F1F700C047
:1002D0000000CF91089541E061E081E00E9441007B
:1002E00041E062E081E00E94410041E063E081E0A2
:1002F0000E94410041E064E080E00E94410041E052
:1003000065E080E00E94410041E066E080E00E94FC
:10031000410041E067E080E00E9441002FEF81EE64
:1003200094E0215080409040E1F700C0000082E05E
:100330000E94230183E30E94230182E30E942301A0
:1003400088E20E9423018CE00E94230181E00E9448
:10035000230186E00E9423010895CF93C82F41E036
:1003600061E081E00E94B20040E062E081E00E9432
:10037000B20040E063E081E00E94B2008BB39C2FAA
:10038000907F8F70892B8BBB41E063E081E00E94FE
:10039000B2008FE99FE00197F1F700C0000040E054
:1003A00063E081E00E94B2002BB330E1C39FC00143
:1003B0001124922F9F70892B8BBB41E063E081E079
:1003C0000E94B2008FE99FE00197F1F700C00000A2
:1003D00040E063E081E00E94B2008FE39FE101977B
:1003E000F1F700C00000CF910895CF93DF93EC01A7
:1003F0008881882331F021960E94AD018991811175
:10040000FBCFDF91CF91089581E00E9423010895F1
:100410000E94FA020E94EB020E946B0180E690E0CB
:100420000E94F5012FEF83ED90E321508040904032
:10043000E1F700C000000E9404028DE690E00E94F7
:10044000F50180E00E94F6020E940203833309F462
:1004500041C028F4813361F0823319F19FC08533A4
:1004600009F46AC008F44FC0863309F47EC096C010
:1004700081E30E94F2020E9404028DE790E00E9454
:10048000F5012FEF89E698E1215080409040E1F797
:1004900000C000000E9404028AE890E00E94F5017A
:1004A000D3CF82E30E94F2020E94040287E990E027
:1004B0000E94F5012FEF89E698E12150804090409D
:1004C000E1F700C000000E94040282EA90E00E946E
:1004D000F501BACF83E30E94F2020E94040283EB8B
:1004E00090E00E94F5012FEF89E698E121508040CD
:1004F0009040E1F700C000000E94040281EC90E00F
:100500000E94F501A1CF84E30E94F2020E9404023E
:100510008CEC90E00E94F5012FEF89E698E12150E4
:1005200080409040E1F700C000000E9404028AED84
:1005300090E00E94F50188CF85E30E94F2020E94BC
:10054000040288EE90E00E94F5012FEF89E698E121
:10055000215080409040E1F700C000000E9404025A
:1005600084EF90E00E94F5016FCF86E30E94F202D3
:100570000E9404028FEF90E00E94F5012FEF89E6C0
:1005800098E1215080409040E1F700C000000E94B7
:1005900004028EE091E00E94F50156CF0E94040211
:1005A0008EE191E00E94F5012FEF83ED90E3215061
:1005B00080409040E1F700C000000E9404028BE2FE
:1005C00091E00E94F50180EC0E9423018CE391E010
:1005D0000E94F50139CFBD9ABE98BF9ABC9A83E5B7
:1005E0008DB908958FB9779BFECF0895811101C011
:1005F000C498089588E18AB986E880BD87E689B9FC
:1006000010BC08955F9BFECF8CB10895F894FFCF86
:1006100057454C434F4D4520484F4D4500474F4FA0
:100620004420544F2053454520594F5500475245CB
:10063000454E204C4544204F4E00424520484150F5
:100640005059204D414E00524544204C4544204FC6
:100650004E00484156452041204E494345205449CB
:100660004D450059454C4C4F57204C4544204F4E6A
:100670000049204C4F564520594F5500475245459B
:100680004E204C4544204F46460053595354454D47
:100690002046414C4C454400524544204C454420A2
:1006A0004F4646004245204341524546554C00596D
:1006B000454C4C4F57204C4544204F46460048413E
:1006C000505059204E4F573F2121213A2800575270
:1006D0004F4E472043484F49534500313233204F56
:1006E0004E20204C31204C32204C33003435362003
:0E06F0004F4646204C31204C32204C33000047
:00000001FF
